:100000000004001003010000D5000000D70000002C
:1000100000000000000000000000000051F9FFEFA8
:10002000000000000000000000000000D9000000F7
:100030000000000000000000DB000000450100009F
:10004000DF000000DF0000000000000019050000D4
:10005000DF000000DF0000000000000000000000E2
:10006000DF000000DF000000DF000000DF00000014
:10007000DF000000DF00000000000000DF000000E3
:100080000000000000000000000000000000000070
:100090000000000000000000000000000000000060
:1000A000DF000000DF000000DF000000DF000000D4
:1000B000DF000000DF000000DF000000DF000000C4
:1000C000180E0000000000100000000000000010EA
:1000D00074000000FEE7FEE7FEE7FEE7FEE7FEE74E
:1000E000002310B5934203D21C585C500433F9E747
:1000F00010BD00231A008B4202D21A500433FAE7D3
:10010000704710B50C4C0D4B9C4206D2A26861683A
:100110002068FFF7E5FF0C34F5E7094B9C4205D258
:1001200061682068FFF7E5FF0834F6E700F0EAF9B8
:1001300000F01EFCFEE7C046C0000000CC0000003E
:10014000D4000000F7B572B62B482C4B0278013270
:10015000D2B2012A01D8027019E0002101709A7808
:100160000132D2B23B2A01D89A7010E05A789970C5
:100170000132D2B23B2A01D85A7008E01A7859707D
:100180000132D2B2172A01D81A7000E01970002289
:1001900004271B4E5C789D7818783178194B0196AE
:1001A0005E1E367886420CD11E78A64209D15E7852
:1001B000AE4206D18822A021920109068F50012269
:1001C00011009E7886420CD1DE78A64209D11E79B4
:1001D000AE4206D18A22A021920109068F50012247
:1001E0000021094E0633B342DAD1002A01D0019B27
:1001F000197062B6F7BDC046600000105C000010C8
:100200005F0000104B0000105D000010F0B58DB0D5
:1002100000F04AFA802108247B4A7C48D36F0025ED
:100220001B031B0B0B434131D367FF314358DB05E5
:10023000DB0D2343A0244350D16F754B24060B40A4
:100240002000D36700F0ACFA8021042289016358B2
:10025000704E134363508A239B01E250357000F0C7
:1002600069F99620800100F08DF96B4800F0F4F9EF
:100270002B006A4C6A4A6B4925706570A57003961D
:10028000501E0370137053709370D3701371063245
:100290009142F5D1002501222E00634B5A700232A3
:1002A0001A710132DA7102329A7201325A730232D1
:1002B0001A7400F0C3F9652806D0732809D100F03C
:1002C000AFF900250126F4E700F0AAF9012E5DD16F
:1002D00008E0012E00D094E004AB58550135EDB292
:1002E000202DE6D904AB1B785048237004AB5B7813
:1002F0000025637004AB9B78A37000F0ADF9207803
:1003000000F0EEF800F0A8F93A2000F089F96078E2
:1003100000F0E6F800F0A0F93A2000F081F9A078AA
:1003200000F0DEF800F098F9414800F095F9280057
:1003300000F0D6F800F090F93E4800F08DF9062361
:1003400000276B4301930026019BDB190093009A61
:10035000354BD3180293009B04AAF3189B18D87846
:10036000029B985500F05CF901363A2000F058F9EC
:10037000032EF0D12020033700F052F9062FE2D1EE
:100380002B48013500F068F9032DD0D12A4800F040
:1003900063F92A4B2A4A1B685B08013B93420DD83C
:1003A000C020284A284953600B6A00061B021B0A1A
:1003B00003430B62002393600733136030BF207840
:1003C00000F08EF800F048F93A2000F029F9607842
:1003D00000F086F800F040F93A2000F021F9A0780A
:1003E00000F07EF800F038F9184800F035F9039B6A
:1003F000187800F075F800F02FF90D4800F02CF98E
:10040000DCE7002655E7C0460480044000C00040F9
:100410007FFF0F005F000010460A00005C00001024
:100420004B0000105D0000104A0000105B0A000045
:10043000500A0000660A0000530A00007000001015
:10044000FFFFFF0010E000E000ED00E06E0A00009A
:100450000023F7B504000E000193984202DA01333D
:100460004442019300211D4D8A4216DD1700931965
:10047000EB18597020000A2100F0A8FAAB193031AE
:10048000D95520000A2100F0A1FA013F0400002FF5
:10049000F0D12E23771EAB5510E0771EA9550DE045
:1004A00020000A2100F092FA013F3031EE197170FC
:1004B00020000A2100F08AFA041E01D0002FEFDA92
:1004C000019B002B02D02D23EB55013F2023002F51
:1004D00002DBEB55013FFAE72800FEBD610000108A
:1004E00070B5050001240A2100F070FA002801D03F
:1004F0000134F8E7EB0FE418020021002800FFF7B1
:10050000A7FF70BD10B500F071F910BD0122014BBD
:100510001A70704700000010044B10B51B68044AA5
:100520005B6A1068DB69984710BDC046F81FFF1F63
:1005300004000010802170B501250F4A0020141D11
:10054000E36F94321B031B0B0B43E3671560E02240
:100550000A4952008B58DB05DB0D2B438B500421DD
:1005600000F028F92800002100F024F9E26F044B84
:100570001340E36770BDC0460080044000C00040E7
:100580007FFF0F007FB50500194800F045F90023F3
:10059000012201AC6560174D227263720193638181
:1005A0002B685B6A1B689847402800D9FEE72B68D8
:1005B00011495B6A0E485B689847104E306000280E
:1005C00000D1FEE700F0C6F82B6820605B6A2100CE
:1005D0009B6830689847002805D0FF23084A1360BD
:1005E000084A034013600822074B1A607FBDC046CB
:1005F00000400640F81FFF1F080000100400001014
:10060000F0800440F480044000E100E0034A1378E5
:10061000002B01D130BFFAE77047C0460000001040
:10062000044B10B51B68044A5B6A01001B69106823
:10063000984710BDF81FFF1F04000010044B10B5B1
:100640001B68044A5B6A1068DB68984710BDC046A7
:10065000F81FFF1F0400001010B586B0019000F0D5
:100660008BF90323002201AC2381023B63810A4BF7
:100670006060E360094B21001A70094B094A1B684E
:1006800010685B6A9B699847002800D0FEE7FFF777
:10069000BDFF06B010BDC0460D05000000000010F3
:1006A000F81FFF1F0400001010B500F06DF8014B9B
:1006B000186010BD700000100022034B18645A64CB
:1006C00001325A647047C046008004400022034B48
:1006D00018675A6701325A677047C0460080044065
:1006E000074B10B5596A1F23CA05120F1940054B55
:1006F000920001314900D05800F06BF910BDC0469E
:1007000000800440840A0000084B1A6C0323134045
:10071000012B06D0032B06D00020002B05D1044866
:1007200003E0044B00E0044B18687047008004406D
:10073000001BB7007C0A0000800A0000044B10B5C3
:100740009C68FFF7E1FF1F2323400133584310BD8E
:10075000008004400A4B10B51A6F03231340022B8C
:1007600006D0032B07D0012B08D1FFF7CDFF06E001
:10077000FFF7B6FF03E0FFF7E1FF00E0014810BD1F
:1007800000800440001BB70010B5FFF7E3FF034BE8
:10079000996FC9B200F01DF910BDC0460080044039
:1007A0004021034AD36F1B031B0B0B43D3677047D6
:1007B00004800440782310B5FF24C20013409C40FD
:1007C0009940044A0009800080180268A24311433E
:1007D000016010BD00C0004010B50249024800F0A1
:1007E00043F810BD80C3C9010087930310B5FFF71C
:1007F000F3FF10BD01238340054906484A681843AA
:1008000082434A604A68D204D20C13434B6070475B
:100810000080044000E0FFFF0F4970B50E228842BF
:1008200005D00E4BC21853425A4110239A1A012583
:1008300095400B4CE36F1B031B0B2B43E367884274
:1008400001D1032005E0074B984201D1042000E0CC
:100850000520FFF7CFFF70BD004006400080F9BFC4
:100860000480044000800640F8B5060008002849CE
:1008700000F0AFF8002405001E2847D824493000B6
:1008800000F0A7F8602841D80C22224B80B2A9B210
:1008900015006543EF5A1E00874225D15D196F8808
:1008A0008F4221D101271C4B02201C8000F04CF804
:1008B0000020FFF701FF0020FFF708FF174B802003
:1008C0001A691F6100F02EF860222B7A80205B01EC
:1008D00013401900EB88413A1A400B00104D1343A6
:1008E000AB6000F031F804E00134472CD0D1002493
:1008F0000CE0EB683B42FCD00C235C43341962896A
:10090000074B03209A67FFF7E1FE01242000F8BDA2
:1009100040420F00C40A00004800001000000440DC
:10092000008004408E22054992008B581843044BE6
:100930001840044B184388507047C046008004405C
:10094000EF800000106D00008E2110B5054C89006D
:100950006358054A134002409343044A13436350CB
:1009600010BDC04600800440EF800000106D000004
:1009700010B5FFF74BFC10BD032210B5431C10420D
:1009800006D00130411E09780029F8D1C01A18E0BC
:100990000C4C02680C4951189143214201D104309A
:1009A000F7E7D4B2411C002C0AD0FF242402811C9A
:1009B000224205D0FF242404C11C224200D0011D84
:1009C000C81A10BD80808080FFFEFEFE03000B432E
:1009D00021D4002931D00122D207030901E0090105
:1009E00012099942FBD9430801E049005208994293
:1009F000FBD900E04908401A07D35241FAD3014617
:100A00001046704749084018F7D29218FAD3401898
:100A1000014610467047CB0F00D04942021000D566
:100A20004042534008B5FFF7D4FF0CBC521000D32E
:100A30004042002A00D549421847F446002000F001
:100A400001F86047704748454C4C4F574F524C4453
:100A50000D0A0053544152540D0A004E4F57205472
:100A6000494D450D0A0054494D45520D0A000D0AE5
:100A70005354415445203D2000FFFFFF001BB700A9
:100A80000000000000000000C027090090051000D1
:100A9000C05C1500F0B31A00200B2000009F24005A
:100AA000E0322900C0C62D0050973100E0673500C4
:100AB0007038390000093D00401640008023430093
:100AC000C03046000C000C00C00000000300010014
:100AD0000C000600C0000000030002000C0004002F
:100AE000C0000000030003000C000300C000000071
:100AF000030004000C000200C00000000300060018
:100B00000C000100C000000003000C0018001800D9
:100B1000C00001000200010018000C00C00001002C
:100B20000200020018000800C000010002000300DB
:100B300018000600C00001000200040018000400B4
:100B4000C00001000200060018000300C000010000
:100B50000200080018000200C000010002000C00A2
:100B600018000100C000010002001800240012005B
:100B7000200102000200020024000C0020010200FB
:100B8000020003002400090020010200020004000A
:100B900024000600200102000200060024000400D8
:100BA00020010200020009002400030020010200CD
:100BB00002000C00240002002001020002001200CA
:100BC000240001002001020002002400300018006F
:100BD000C00003000100020030001000C00003004C
:100BE0000100030030000C00C000030001000400FD
:100BF00030000800C00003000100060030000600BD
:100C0000C00003000100080030000400C000030021
:100C100001000C0030000300C000030001001000C0
:100C200030000200C0000300010018003000010085
:100C3000C0000300010030003C001E00F000040072
:100C4000010002003C001400F00004000100030059
:100C50003C000F00F0000400010004003C000C0008
:100C6000F0000400010005003C000A00F000040050
:100C7000010006003C000600F000040001000A002C
:100C80003C000500F000040001000C003C000400E2
:100C9000F000040001000F003C000300F00004001D
:100CA000010014003C000200F000040001001E00DE
:100CB0003C000100F000040001003C004800180066
:100CC000200105000100030048001200200105007A
:100CD0000100040048000C0020010500010006008E
:100CE0004800090020010500010008004800080034
:100CF0002001050001000900480006002001050050
:100D000001000C0048000400200105000100120051
:100D100048000300200105000100180048000200FF
:100D20002001050001002400480001002001050009
:100D30000100480054001C00A80006000000030049
:100D400054001500A80006000000040054000E0026
:100D5000A80006000000060054000C00A8000600D1
:100D60000000070054000700A800060000000C0067
:100D700054000600A800060000000E005400040005
:100D8000A80006000000150054000300A80006009B
:100D900000001C0054000200A800060000002A0009
:100DA00054000100A8000600000054006000180074
:100DB000C00007000000040060001000C000070031
:100DC0000000060060000C00C000070000000800E2
:100DD00060000800C000070000000C006000060072
:100DE000C00007000000100060000400C000070001
:100DF0000000180060000300C00007000000200091
:100E000060000200C0000700000030006000010028
:080E1000C000070000006000B3
:0400000300000103F5
:00000001FF
